S011000053656D6573746572342E7372656397
S113000026C1000045C1000043C1000041C10000F9
S11300103FC100003DC100003BC1000039C10000E8
S113002037C1000035C1000033C1000031C10000F8
S11300301DC400002DC100002BC1000029C1000017
S113004027C1000025C1000023C1000021C1000018
S11300501FC100000C94A41A1BC1000019C10000A8
S11300600C9487250C9463210C94B52111C10000D4
S11300700FC100000DC100000BC1000009C1000048
S113008007C1000005C1000003C1000001C1000058
S11300900C94F9210C944B22FBC000000C94B6285C
S11300A0F7C00000F5C00000F3C00000F1C000007C
S11300B0EFC00000EDC00000EBC00000E9C000008C
S11300C0E7C00000E5C00000E3C000000C948F22EC
S11300D00C94E122DDC000000C9425230C947723BA
S11300E0D7C000003A173A173A17711779178E17C5
S11300F03A173A1771177917D828482948294829EF
S11301004829482948294829D828482948294829D4
S11301104829482948294829DA28482948294829C2
S11301204829482948294829482948294829482943
S11301304829482948294829DA28482948294829A2
S11301404829482948294829482948294829482923
S11301504829482948294829442948294829482917
S113016048294829482948290F294829482948293C
S113017048294829482948294829482948294829F3
S11301804829482948294829032948294829482928
S11301904829482948294829272907634236B79B13
S11301A0D8A71A39685618AEBAAB558C1D3CB7CCD3
S11301B05763BD6DEDFD753EF6177231BF0000004B
S11301C0803F08000000BE922449123EABAAAA2A2E
S11301D0BECDCCCC4C3E00000080BEABAAAAAA3E49
S11301E000000000BF000000803F00000000000885
S11301F04178D3BB4387D1133D190E3CC3BD428222
S1130200AD2B3E68EC8276BED98FE1A93E4C80EFDF
S1130210FFBE01C4FF7F3F00000000000E948A0B64
S11302208091AD14823008F05BD20E94B717F6CFEC
S1130230CF93DF931F92CDB7DEB7CE0101960E9414
S1130240B71449810E94AC160E940317F6CF1124FB
S11302501FBECFEFD1E2DEBFCDBF00E00CBF16E082
S1130260A0E0B2E0EEE6F4E600E00BBF02C00790C7
S11302700D92A03AB107D9F726E1A0EAB6E001C091
S11302801D92AC3BB207E1F70E9483190C943532FE
S1130290B7CEECEAF6E0A0EBB6E0B183A08313821C
S11302A01282E8E5F4E1F093AB06E093AA06138228
S11302B012821182108288EA9DE013969C938E9399
S11302C01297ED93FC939093A7068093A6069093C0
S11302D0A9068093A80680E090E89093A1068093F5
S11302E0A0060895CF93DF93EC01ACEAB6E001C019
S11302F0DF01ED91FC911197EC17FD07C8F31296FD
S11303008D919C9113979D01280F391FC217D30714
S113031049F42A813B81820F931F13969C938E93F9
S11303201297ED018A819B819E01280F391FE217E4
S1130330F307C1F42091AA063091AB06E217F30744
S113034071F022813381820F931F9B838A83ED9105
S1130350FC911197808191819983888305C03983A9
S1130360288302C0F983E883CA17DB0711F0CD9311
S1130370DC93DF91CF910895EF92FF920F931F9337
S1130380CF93DF938C010E94D50C8091AA069091A3
S1130390AB06892B09F47DDF8091A0069091A1061C
S11303A080239123892B09F076C00115110549F0AA
S11303B0C80104960817190718F000E010E001C0FE
S11303C08C010115110509F469C08091A80690916A
S11303D0A9068017910708F464C0C091AC06D091B7
S11303E0AD06ECEAF6E002C0FE01EC018A819B81D5
S11303F08017910720F4888199810097A9F780914B
S1130400AA069091AB06C817D90709F44DC0E0803D
S1130410F18084E0E80EF11C8881998191838083C6
S11304202A813B81201B310B2930310548F0CE0154
S1130430800F911FFC01338322831B830A8352DFC5
S11304402A813B818091A8069091A906821B930B77
S11304509093A9068093A8064091A6065091A706FA
S11304608417950720F49093A7068093A60680919D
S1130470A0069091A106282B392B3B832A8319824D
S113048018828091A4069091A50601969093A506E2
S11304908093A4060BC0E12CF12C08C0E12CF12CB4
S11304A005C0E12CF12C02C0E12CF12C0E94150EA8
S11304B0E114F10411F40E94C317C701DF91CF9135
S11304C01F910F91FF90EF9008950F931F93CF9377
S11304D0DF93009791F1EC0124974A815B8120918D
S11304E0A0063091A106BA0162237323672B29F178
S11304F068817981672B09F520953095242335236C
S11305003B832A830E94D50C8A819B812091A80673
S11305103091A906820F931F9093A9068093A80691
S1130520CE01E0DE8091A2069091A30601969093FD
S1130530A3068093A2060E94150EDF91CF911F910E
S11305400F910895FC010396928381834FEF5FEF2F
S1130550BA01438354836583768390878783928724
S1130560818710820895FC011386128608950F93E3
S11305701F93CF93DF93EB01088119812A813B817B
S11305800F3F4FEF14072407340721F4FC01A18522
S1130590B28511C0DC01139601C0DF011496ED9100
S11305A0FC9115974081518162817381041715076D
S11305B02607370790F71496ED91FC911597FD8364
S11305C0EC83D783C683BF83AE831596DC93CE9327
S11305D014979B878A87FC0120812F5F2083DF91FA
S11305E0CF911F910F910895CF93DF93FC01A285C2
S11305F0B385C481D581868197819F838E83C6818B
S1130600D781848195819D838C8311968D919C9152
S11306101297E817F90731F48681978112969C9313
S11306208E931197138612868C9181508C938C91A2
S1130630DF91CF910895A89590EC88E10FB6F894D6
S1130640A895809360000FBE909360000895FC010C
S1130650608331977083319710823197108231977C
S113066020E82083319710823197108231971082CD
S1130670779740833197508386970895DCDFA09164
S11306801B15B0911C15CD91CDBFDD91DEBFFF913F
S1130690EF91DF91CF91BF91AF919F918F917F9116
S11306A06F915F914F913F912F911F910F91FF9007
S11306B0EF90DF90CF90BF90AF909F908F907F90FE
S11306C06F905F904F903F902F901F900F900CBEB3
S11306D00F900BBE0F900FBE0F90089581E0089508
S11306E00F920FB6F8940F920BB60F920CB60F92AE
S11306F01F9211242F923F924F925F926F927F929A
S11307008F929F92AF92BF92CF92DF92EF92FF921D
S11307100F931F932F933F934F935F936F937F9305
S11307208F939F93AF93BF93CF93DF93EF93FF93F5
S1130730A0911B15B0911C150DB60D920EB60D921D
S11307400E94710FA0911B15B0911C15CD91CDBFC6
S1130750DD91DEBFFF91EF91DF91CF91BF91AF911A
S11307609F918F917F916F915F914F913F912F91C5
S11307701F910F91FF90EF90DF90CF90BF90AF90BB
S11307809F908F907F906F905F904F903F902F90AD
S11307901F900F900CBE0F900BBE0F900FBE0F90CA
S11307A008950F920FB6F8940F920BB60F920CB6F1
S11307B00F921F9211242F923F924F925F926F9249
S11307C07F928F929F92AF92BF92CF92DF92EF92DD
S11307D0FF920F931F932F933F934F935F936F93C6
S11307E07F938F939F93AF93BF93CF93DF93EF93B5
S11307F0FF93A0911B15B0911C150DB60D920EB66A
S11308000D9213BE0E94E90C81110E94710FA091F8
S11308101B15B0911C15CD91CDBFDD91DEBFFF91AD
S1130820EF91DF91CF91BF91AF919F918F917F9184
S11308306F915F914F913F912F911F910F91FF9075
S1130840EF90DF90CF90BF90AF909F908F907F906C
S11308506F905F904F903F902F901F900F900CBE21
S11308600F900BBE0F900FBE0F9008959ADF18954E
S11308700FB6F8940F92FC01868D811102C081E0BD
S113088001C080E00F900FBE08950FB6F8940F9248
S1130890FC01268D878D281302C081E001C080E011
S11308A00F900FBE08950F931F93CF93DF93EC0126
S11308B0042F1E8D48A141110CC088819981892B78
S11308C009F042C08C819D810E9482111D821C828C
S11308D042C0011117C050E08A819B810E94B82E4A
S11308E028A18A819B81820F911D9B838A832C81FD
S11308F03D818217930750F1888199819B838A8374
S113090080E029C050E08E819F810E94B82E88A18A
S113091090E09195819591092E813F81280F391F8F
S11309203F832E83488159812417350730F42C8165
S11309303D81820F931F9F838E83023049F41123DC
S113094049F0115080E007C080E005C080E003C09A
S113095080E001C080E01F5F1E8FDF91CF911F9167
S11309600F910895FC0140A14423A9F050E0268191
S11309703781240F351F3783268384819581281777
S1130980390720F08081918197838683CB0166812A
S113099077810C94B82E08951F93CF93DF93EC01C5
S11309A00FB6F8940F921AA10BC08B89882351F0CB
S11309B0CE0143960E942F1081110E946B11115099
S11309C011169CF38FEF8AA30F900FBE0FB6F89405
S11309D00F9219A10BC08885882351F0CE01089687
S11309E00E942F1081110E946B11115011169CF35B
S11309F08FEF89A30F900FBEDF91CF911F910895C0
S1130A00CF93DF93EC010FB6F8940F92E881F9814C
S1130A108F8D28A190E030E0829FA001839F500D2C
S1130A20929F500D11244E0F5F1F5D834C831E8EC9
S1130A30FB83EA830197289FA001299F500D389FCB
S1130A40500D1124CF01840F951F9F838E838FEF48
S1130A5089A38AA361110BC08885882371F0CE0114
S1130A6008960E942F10882341F03ADE06C0CE017A
S1130A70089668DDCE01439665DD0F900FBE81E0D8
S1130A80DF91CF9108950F931F93F801611103C073
S1130A901183008302C051834083878F60A361E088
S1130AA0CF01AEDF1F910F910895DF92EF92FF9275
S1130AB00F931F93CF93DF93F82EE62ED42E869FA9
S1130AC0C0011124839658DCEC01009741F08C019D
S1130AD02D2DAC014D5D5F4F6E2D8F2DD4DFCE01DA
S1130AE0DF91CF911F910F91FF90EF90DF900895C8
S1130AF0CF92DF92EF92FF920F931F93CF93DF93E6
S1130B00CDB7DEB729970FB6F894DEBF0FBECDBFC1
S1130B107C016B012E833F834887598710E00FB611
S1130B20F8940F92F701968D878D981710F0023084
S1130B30B1F4402FB601C701B6DEF70193899923BA
S1130B4041F0C70143960E942F10882321F0C8DD8D
S1130B5002C08111C5DD0F900FBE81E04CC08E81B3
S1130B609F81A885B985892B8A2B8B2B21F40F9023
S1130B700FBE80E040C0111105C0CE0101960E9455
S1130B80F41011E00F900FBE10D70FB6F8940F9227
S1130B90F70181A18F3F09F411A2F70182A18F3FD0
S1130BA009F412A20F900FBEBE016A5F7F4FCE01FF
S1130BB001960E940511811119C0C70166DE8823C0
S1130BC081F04E815F8168857985C70108960E940E
S1130BD0D60FC701E1DE0E94150E8111A0CF80DD82
S1130BE09ECFC701D9DE0E94150E99CFC701D4DE6E
S1130BF00E94150E80E029960FB6F894DEBF0FBE52
S1130C00CDBFDF91CF911F910F91FF90EF90DF90B7
S1130C10CF9008950F93009769F0FC011582148218
S1130C2011821082168200E020E030E0A90160E029
S1130C3070E05EDF0F910895CF93DF93482F60E05B
S1130C4081E033DFEC01E6DFCE01DF91CF9108953F
S1130C50EF92FF920F931F93CF93DF938A01FC01CE
S1130C60568D378D531710F02230F9F4422F780146
S1130C70EC011AA18E8DCE0116DE1F3F81F48B8903
S1130C808823A9F0CE0143960E942F10882389F06F
S1130C90E114F10481F081E0F70180830DC0FF24A9
S1130CA0F394F10EFAA281E007C080E005C081E070
S1130CB003C081E001C081E0DF91CF911F910F91CA
S1130CC0FF90EF900895CF92DF92EF92FF920F93EF
S1130CD01F93CF93DF93CDB7DEB729970FB6F89460
S1130CE0DEBF0FBECDBF8C016B012E833F834887CF
S1130CF05987E12C0FB6F8940F92F801F68CFF2077
S1130D0099F0B601C8012EDEFA94F801F68E8085BA
S1130D10882331F0C80108960E942F108111E0DC6D
S1130D200F900FBE81E04FC08E819F81A885B98549
S1130D30892B8A2B8B2B21F40F900FBE80E043C0AC
S1130D40E11006C0CE0101960E94F410EE24E39453
S1130D500F900FBE2AD60FB6F8940F92F80181A116
S1130D608F3F09F411A2F80182A18F3F09F412A266
S1130D700F900FBEBE016A5F7F4FCE0101960E94A5
S1130D800511811117C0C80173DD882379F04E81E4
S1130D905F8168857985C80143960E94D60FC80192
S1130DA0FBDD43D78111A6CF9BDCA4CFC801F4DDC2
S1130DB03CD7A0CFC801F0DD38D7C80159DD88235E
S1130DC009F498CF80E029960FB6F894DEBF0FBEE1
S1130DD0CDBFDF91CF911F910F91FF90EF90DF90E6
S1130DE0CF900895CF93DF93EC010FB6F8940F9250
S1130DF089A18F3F09F419A28AA18F3F09F41AA28D
S1130E000F900FBE8E8D811104C0CE0143960E94B7
S1130E10ED0FCE01C1DDDF91CF910895FC01448136
S1130E20558122813381240F351F80819181B9013D
S1130E30681B790BCB016417750710F0841B950BA5
S1130E4008950F93FC018FE0DF011D928A95E9F765
S1130E5075876487558344833783268306870F9178
S1130E600895AF92BF92CF92DF92EF92FF920F93C9
S1130E701F93CF93DF936C015B017A01FC01C28164
S1130E80D381048115810C1B1D0B4017510708F4F5
S1130E908A01F60184859585A801B5018C0F9D1FF3
S1130EA00E94B82E0E151F0558F4A701401B510BC4
S1130EB0B501600F711FF601848595850E94B82ED7
S1130EC0CE018E0D9F1DF601248135818217930773
S1130ED010F0821B930BF60193838283C701DF9189
S1130EE0CF911F910F91FF90EF90DF90CF90BF9023
S1130EF0AF900895CF92DF92EF92FF920F931F93DA
S1130F00CF93DF931F921F92CDB7DEB77C016B01A5
S1130F105A83498321153105C1F0FC01868580FD82
S1130F2008C04217530708F49A013A83298381E0E1
S1130F300FC02017310758F042E050E0BE016F5F48
S1130F407F4FC7018EDF81E003C080E001C080E0F5
S1130F50882331F049815A81B601C70182DF02C07A
S1130F6080E090E00F900F90DF91CF911F910F914F
S1130F70FF90EF90DF90CF900895AF92BF92CF9201
S1130F80DF92EF92FF920F931F93CF93DF937C0135
S1130F905B01E9014217530708F4EA01209781F144
S1130FA0F7010081118184819581801B910B6E0171
S1130FB08C179D0708F46C01F70164857585600F33
S1130FC0711FA601C5010E94B82ECC16DD0658F487
S1130FD0AE014C195D09F70164857585C5018C0D59
S1130FE09D1D0E94B82E0C0F1D1FF7018481958151
S1130FF00817190710F0081B190BF7011183008358
S1131000CE01DF91CF911F910F91FF90EF90DF9070
S1131010CF90BF90AF9008956F927F928F929F92DE
S1131020AF92BF92CF92DF92EF92FF920F931F93F2
S1131030CF93DF931F921F92CDB7DEB76C014B01A4
S11310405A01790101151105B1F0FC01608071802C
S1131050A801BE016F5F7F4F90DF89819A81E01AFA
S1131060F10AA816B90630F4F60171826082A12C47
S1131070B12C01C05C019701A501B401C6017DDF5B
S11310800F900F90DF91CF911F910F91FF90EF90F0
S1131090DF90CF90BF90AF909F908F907F906F9094
S11310A00895CF92DF92EF92FF920F93CF93DF9345
S11310B0EC016B01413011F401E001C000E0C11406
S11310C0D10419F4CC24C394D12CCE014096C81772
S11310D0D90720F4219650D97C0102C0E12CF12CCF
S11310E0E114F10439F09601AE01B701615F7F4F5D
S11310F0C701A7DEC701DF91CF910F91FF90EF9059
S1131100DF90CF9008950F930FB6F8940F92FC01DF
S113111020853185232B71F422853385232B61F4BB
S1131120268137814481558164857585068589DEEC
S113113081E003C080E001C080E00F900FBE0F91FA
S11311400895FC012481358180819181820F931F50
S113115042815381841B950B01978217930710F0EA
S1131160821B930B08952F923F924F925F926F923E
S11311707F928F929F92AF92BF92CF92DF92EF9223
S1131180FF920F931F93CF93DF93CDB7DEB72B97C7
S11311900FB6F894DEBF0FBECDBF4C017B876A87C4
S11311A01A010E831F8328873987FC018481958166
S11311B00197268520FF0CC02A01F2E04F0E511C36
S11311C08415950558F41E821F821886198606C058
S11311D08417950710F02A0101C02C018E819F818C
S11311E0A885B985892B8A2B8B2B09F436C0CE01AF
S11311F00196E4D70FB6F8940F92C401A2DF3C0124
S11312008415950538F560E080E090E00E949D1417
S11312100E946F11F401938782870F900FBEAE80F6
S1131220BF80C884D984E12CF12C00E010E098013F
S113123040E050E0BA0180E00E94DD11F401138621
S11312401286BE016A5F7F4FCE010196DED78823E6
S113125089F205C00F900FBE02C0612C712C61147D
S1131260710419F4C4016DDF3C0182019301A101F1
S11312706A857B85C4013EDE6C01892BE9F0C401DB
S1131280CDDDF4012681378182179307A8F08DD331
S1131290F40180859185892B71F080859185E12CFD
S11312A0F12C00E020E030E0A90160E00E9484120B
S11312B0F40111861086B9D4C6012B960FB6F894A2
S11312C0DEBF0FBECDBFDF91CF911F910F91FF9075
S11312D0EF90DF90CF90BF90AF909F908F907F90D2
S11312E06F905F904F903F902F900895AF92BF9270
S11312F0CF92DF92EF92FF920F931F93CF93DF93DE
S1131300EC017B015A0169018E8580FF04C08A01CA
S11313100E5F1F4F01C08A01CE0113DF9C01A5019E
S1131320B701CE01E7DD5C01892BC1F0CE0176DD8A
S11313302E813F818217930788F088859985892BB0
S113134069F088859985E12CF12C00E020E030E0FB
S1131350A90160E00E947B1319861886C501DF91FC
S1131360CF911F910F91FF90EF90DF90CF90BF909E
S1131370AF9008954F925F926F927F928F929F9257
S1131380AF92BF92CF92DF92EF92FF920F931F938F
S1131390CF93DF93EC012B013A01580169018E854B
S11313A080FF05C06894882481F8912C02C0812CA8
S11313B0912CA114B104C104D10431F10FB6F894F5
S11313C00F92CE012BDD7C018816990640F060E077
S11313D080E090E00E949D1482D7998788870F90BF
S11313E00FBE8E149F0498F0E12CF12C00E010E065
S11313F0980140E050E0BA0180E0DFD719861886F2
S1131400CE010CDD7C0103C0CE0108DD7C018E140D
S11314109F04E8F484019701A301B201CE01FCDD2D
S11314206C01892BB1F0C1D28A859B85892B69F027
S11314308A859B85E12CF12C00E020E030E0A901B5
S113144060E00E9484121B861A86EFD302C0C12C6E
S1131450D12CC601DF91CF911F910F91FF90EF9096
S1131460DF90CF90BF90AF909F908F907F906F90C0
S11314705F904F900895E0919514F09196148081B7
S113148081110CC08FEF9FEFDC0180935F14909368
S11314906014A0936114B09362140895E0919514BC
S11314A0F09196140780F085E02D80819181A281CE
S11314B0B38180935F1490936014A0936114B093EC
S11314C062140895CF93DF93EC018B8D9C8D0E9461
S11314D06502CE010E946502DF91CF9108954F927B
S11314E05F926F927F928F929F92AF92BF92CF92B0
S11314F0DF92EF92FF920F93CF93DF932C015B0166
S11315004A013901E60165EA70E08B8D9C8D0E94E9
S1131510C12E8B8D9C8D21E0821A9108880E991E14
S1131520A114B10489F415C0822F90E0F501E80FED
S1131530F91F3081DE01A80FB91F5D963C938081AD
S1131540882329F02F5F01C020E0203168F31CA616
S113155001C01D8E0A3008F009E00A8F0DA71EA6EF
S1131560CE01029600D8CE010E960E94B302DB870C
S1131570CA878AE090E0A0E0B0E0801B9109A1094D
S1131580B1098E879F87A88BB98BDF8BCE8B84E0C4
S1131590FE01BF96DF011D928A95E9F71BAAA301FC
S11315A0B201C40154D899838883E114F10419F079
S11315B0F701D183C083DF91CF910F91FF90EF901A
S11315C0DF90CF90BF90AF909F908F907F906F905F
S11315D05F904F900895CF93C0E009C02BE0C29F65
S11315E0C001112483559B4E0E94A202CF5FCA30D2
S11315F0A8F382EA94E10E94A20287E994E10E949E
S1131600A20288E894E10E94A2028DE794E10E947C
S1131610A20281E794E10E94A20282EA94E19093FB
S113162096148093951487E994E19093941480938D
S11316309314CF910895CF93DF93EC010FB6F894F0
S11316400F92809170148F5F8093701480911B159A
S113165090911C15892B51F4D0931C15C0931B1524
S113166080917014813091F4B6DF10C080916A14B7
S113167081110CC0E0911B15F0911C15928D8A8D7F
S1131680891720F0D0931C15C0931B158091631407
S11316908F5F80936314EA8D80916B148E1710F41E
S11316A0E0936B148BE08E9FF0011124E355FB4E05
S11316B00180F281E02DFF83EE8326813781398713
S11316C02887A681B7819E012E5F3F4F15963C93D4
S11316D02E93149737832683EA8D8E9FF00111246D
S11316E0E355FB4EFD87EC8780818F5F80830F90ED
S11316F00FBE80916A14882351F0E0911B15F0917C
S11317001C15928D8A8D981710F40E947003DF9136
S1131710CF910895CF93DF931BC00FB6F8940F9227
S1131720E0918414F0918514C085D185CE01029690
S11317300E94F402809170148150809370148091FF
S11317407C14815080937C140F900FBECE01BADEBE
S113175080917C148111E1CFDF91CF9108958F9214
S11317609F92AF92BF92CF92DF92EF92FF92CF936C
S1131770DF936B017C01C42F80906C1490906D14E6
S1131780A0906E14B0906F1480911B1590911C154D
S113179002960E94F4028FEFC816D806E806F806EF
S11317A0B1F5CC23A1F1E1E7F4E1A181B281C091CB
S11317B01B15D0911C15BF83AE83C0911B15D0910E
S11317C01C1516968D919C91179799878887169664
S11317D0CD91DC91179780911B1590911C15029661
S11317E09D838C8380911B1590911C1502961796EE
S11317F09C938E931697A0911B15B0911C151D9662
S1131800FC93EE931C9780818F5F80833FC0C80C4C
S1131810D91CEA1CFB1CE0911B15F0911C15C2821B
S1131820D382E482F582C814D904EA04FB0468F480
S113183060911B1570911C158091931490919414D0
S11318406E5F7F4F0E94B70221C060911B1570919B
S11318501C1580919514909196146E5F7F4F0E9491
S1131860B70280915F1490916014A0916114B091BB
S11318706214C816D906EA06FB0640F4C0925F1447
S1131880D0926014E0926114F0926214DF91CF91CF
S1131890FF90EF90DF90CF90BF90AF909F908F908C
S11318A008952F923F924F925F926F927F928F9200
S11318B09F92AF92BF92CF92DF92EF92FF920F93DB
S11318C0CF93DF933C011B014A012901CA010E9405
S11318D0BC016C01892B71F084E390E00E94BC018F
S11318E0EC01892B19F0DC8ECB8E06C0C6010E9458
S11318F0650202C0C0E0D0E0209761F0A12CB12CB9
S11319006E019201A401B101C301E9DDCE0193DEB0
S113191081E001C08FEFDF91CF910F91FF90EF90A5
S1131920DF90CF90BF90AF909F908F907F906F90FB
S11319305F904F903F902F900895EF92FF920F93F6
S11319400F2EFDE5EF2EF4E1FF2EF02D00E020E058
S113195030E040EC50E062E472E08EE091E0A1DF20
S1131960813011F40E9441158130C9F4F8948FEF4D
S11319709FEFDC0180935F1490936014A093611433
S1131980B093621481E080936A1410926C141092E4
S11319906D1410926E1410926F140E943E03809185
S11319A006020F91FF90EF90089580915C148F5F71
S11319B080935C1408950FB6F8940F9260916C14A0
S11319C070916D1480916E1490916F140F900FBEEE
S11319D00895CF92DF92EF92FF92CF93DF9380919D
S11319E05C14811105C1C0906C14D0906D14E0900A
S11319F06E14F0906F148FEFC81AD80AE80AF80A28
S1131A00C0926C14D0926D14E0926E14F0926F1424
S1131A10C114D104E104F104B1F4809195149091BE
S1131A209614209193143091941430939614209327
S1131A3095149093941480939314809164148F5FFD
S1131A408093641418DD80915F1490916014A091C8
S1131A506114B0916214C816D906EA06FB0620F494
S1131A6080E0B2C081E001C080E0E0919514F09183
S1131A709614908191110CC04FEF5FEFBA0140931F
S1131A805F145093601460936114709362149CC04B
S1131A90E0919514F09196140780F085E02D008470
S1131AA0F185E02D4281538164817581C416D50688
S1131AB0E606F70648F440935F145093601460936D
S1131AC061147093621480C0A485B585C681D781E2
S1131AD0208531853F832E83C085D185268137813A
S1131AE03D832C8311964D915C9112979F012E5F3B
S1131AF03F4F4217530731F44085518512965C934A
S1131B004E931197158614869C9191509C93A08DA9
S1131B10B18D109709F1C289D389448955895F83AE
S1131B204E83C489D589428953895D834C83119638
S1131B306D917C911297AF01425F5F4F64177507F7
S1131B4031F44489558912965C934E931197118E02
S1131B50108E9C9191509C93A28D90916B149A1726
S1131B6010F4A0936B149BE09A9FD0011124A35509
S1131B70BB4E11960D90BC91A02DB783A6831696EB
S1131B804D915C911797518740871696CD91DC91C2
S1131B9017973D832C8317963C932E931697A28D0B
S1131BA09A9FD0011124A355BB4EB587A4879C915D
S1131BB09F5F9C93228DE0911B15F0911C15928DD3
S1131BC0291708F04FCF51CFE0911B15F0911C1548
S1131BD0E28D9BE0E99FF0011124E355FB4E9081D7
S1131BE0923008F081E090916514911116C016C0EE
S1131BF08091661490916714A0916814B09169144F
S1131C000196A11DB11D8093661490936714A0934F
S1131C106814B093691480E001C081E0DF91CF9132
S1131C20FF90EF90DF90CF900895CF92DF92EF92E4
S1131C30FF92CF93DF930FB6F8940F9280915C14C8
S1131C40815080935C1480915C148111BEC080919A
S1131C507014811188C0BCC0E0918F14F09190146D
S1131C600084F185E02DA08DB18DC289D38984894A
S1131C7095899F838E83C489D589828993899D831D
S1131C808C8311962D913C911297CF010E962817B3
S1131C90390731F48489958912969C938E93119710
S1131CA0118E108E8C9181508C93A485B585C6813C
S1131CB0D781808591859F838E83C085D1858681D8
S1131CC097819D838C8311968D919C9112979F018E
S1131CD02E5F3F4F8217930731F4808591851296CA
S1131CE09C938E931197158614868C9181508C93B6
S1131CF0A28D80916B148A1710F4A0936B148BE05F
S1131D008A9FD0011124A355BB4E11960D90BC910E
S1131D10A02DB783A68316964D915C911797518792
S1131D2040871696CD91DC9117973D832C831796A7
S1131D303C932E931697A28D8A9FD0011124A3550C
S1131D40BB4EB587A4878C918F5F8C93928DA091A5
S1131D501B15B0911C155A968C91981730F081E0A0
S1131D608093651402C0E0E0F0E080918814811152
S1131D7073CFEF2B09F07FDBC0906614D09067140B
S1131D80E0906814F0906914C114D104E104F104E2
S1131D90A1F01FDE882319F081E08093651481E0AF
S1131DA0C81AD108E108F108A1F71092661410923C
S1131DB06714109268141092691480916514882332
S1131DC031F00E94700381E003C080E001C080E034
S1131DD00F900FBEDF91CF91FF90EF90DF90CF90E7
S1131DE008958F929F92AF92BF92CF92DF92EF921B
S1131DF0FF921F93CF93DF93EC016A017B01D5DD42
S1131E0080906C1490906D14A0906E14B0906F1428
S1131E1088819981AA81BB81AC01BD014C0D5D1DF6
S1131E206E1D7F1D88169906AA06BB0660F4481726
S1131E3059076A077B0798F484169506A606B70621
S1131E4080F010E013C0481759076A077B0758F061
S1131E5084169506A606B70640F010E007C010E009
S1131E6005C011E003C011E001C011E048835983AB
S1131E706A837B83112341F0CB01BA016819790984
S1131E808A099B0940E06BDCD0DE811102C00E940C
S1131E907003812FDF91CF911F91FF90EF90DF901E
S1131EA0CF90BF90AF909F908F900895CF92DF9284
S1131EB0EF92FF926B017C01672B682B692B39F041
S1131EC074DD40E0C701B6014ADCAFDE01C080E04A
S1131ED0811102C00E947003FF90EF90DF90CF90B9
S1131EE0089580915C14882321F081E08093651427
S1131EF0089510926514E0911B15F0911C15208132
S1131F003181E0911B15F0911C15838D948D8217FE
S1131F10930760F060911B1570911C15635E7F4FF1
S1131F2080911B1590911C150E94CF1780916B1402
S1131F3001C08150282F30E09BE0929FF001939FD5
S1131F40F00D1124E355FB4E9081992391F39BE00E
S1131F50929FA001939F500D1124DF010180F28113
S1131F60E02D0480F581E02D1296FC93EE931197F9
S1131F7040555B4EE417F50729F444815581FD0172
S1131F80528341839BE0929FF001939FF00D1124B3
S1131F90E355FB4E0180F281E02D2085318530939D
S1131FA01C1520931B1580936B140895CF92DF9218
S1131FB0EF92FF926A017B0160911B1570911C15D1
S1131FC0625F7F4F0E94B70241E0C701B601C7DBE1
S1131FD0FF90EF90DF90CF900895CF93DF93FC01B3
S1131FE0CB01BA01A181B281C0911B15D0911C15FE
S1131FF0BB8BAA8BC0911B15D0911C1516964D91C5
S11320005C9117975D8B4C8B1696CD91DC9117974D
S113201040911B1550911C15425F5F4F5D834C83AB
S113202040911B1550911C15425F5F4F17965C93AE
S11320304E931697A0911B15B0911C155996FC93BD
S1132040EE93589730813F5F3083222319F06FEF6E
S11320507FEFCB01422F83DBDF91CF910895CF93A4
S1132060DF93DC011796ED91FC9118970084F185BC
S1132070E02DA08DB18DC289D389848995899F83F0
S11320808E83C489D589828993899D838C83119693
S11320908D919C9112979F01225F3F4F8217930766
S11320A031F48489958912969C938E931197118E9D
S11320B0108E8C9181508C9380915C14811152C04C
S11320C0A485B585C681D781808591859F838E83BC
S11320D0C085D185868197819D838C8311968D914E
S11320E09C9112979F012E5F3F4F8217930731F403
S11320F08085918512969C938E93119715861486EC
S11321008C9181508C93A28D80916B148A1710F45A
S1132110A0936B148BE08A9FD0011124A355BB4E6E
S113212011960D90BC91A02DB783A68316964D9160
S11321305C911797518740871696CD91DC9117973C
S11321403D832C8317963C932E931697A28D8A9FDA
S1132150D0011124A355BB4EB587A4878C918F5F02
S11321608C931CC048E854E1DA011196CD91DC91BE
S11321701297D38BC28B8E819F81958B848B8E819A
S11321809F81DC0115963C932E9314973F832E83F5
S1132190518F408FDA018C918F5F8C93928DE091F7
S11321A01B15F0911C15828D891720F481E0809312
S11321B0651401C080E0DF91CF9108950FB6F894C3
S11321C00F9220916414FC01208340916C1450916F
S11321D06D1460916E1470916F1441835283638304
S11321E074830F900FBE089520916414FC01208322
S11321F040916C1450916D1460916E1470916F1431
S1132200418352836383748308958F929F92AF9224
S1132210BF92CF92DF92EF92FF920F931F93CF93CF
S1132220DF93FB010FB6F8940F92C0906C14D0901A
S11322306D14E0906E14F0906F14DC0111960D9102
S11322401D912D913C91149746015701801A910AD2
S1132250A20AB30A40815181628173814F3FBFEF6B
S11322605B076B077B0739F1EC01B881A09164141B
S1132270BA1759F0C016D106E206F30630F0108200
S113228011821282138281E017C084169506A60675
S1132290B70658F4481959096A097B0940835183E0
S11322A062837383A1DF80E007C0108211821282EF
S11322B0138281E001C080E00F900FBEDF91CF91C7
S11322C01F910F91FF90EF90DF90CF90BF90AF9050
S11322D09F908F90089581E0809365140895809174
S11322E01B1590911C15089580916A14882331F070
S11322F080915C14811104C082E0089581E0089506
S113230080E008950F931F93CF93DF93FC01892BF3
S113231009F449C086A5815086A7228D95A5291761
S113232009F443C0811143C0EF018F010E5F1F4FB9
S1132330C8010E94F402EDA5EA8F8AE090E0A0E0D3
S1132340B0E08E1B9109A109B1098E879F87A88BE4
S1132350B98B80916B148E1710F4E0936B148BE09F
S11323608E9FF0011124E355FB4E0180F281E02D94
S1132370FF83EE832681378139872887A681B78139
S113238015961C930E93149717830683EA8D8E9FDC
S1132390F0011124E355FB4EFD87EC8780818F5FAC
S11323A0808381E005C080E003C080E001C080E05C
S11323B0DF91CF911F910F9108954F925F926F9289
S11323C07F92AF92BF92CF92DF92EF92FF920F93E0
S11323D01F93CF93DF93280139010FB6F8940F921E
S11323E0E0911B15F0911C15C82FD0E0EC0FFD1FD8
S11323F083A9823071F1E0911B15F0911C15CE0177
S1132400880F991F880F991FE80FF91F87A590A9B6
S1132410A1A9B2A940955095609570954823592378
S11324206A237B2347A750AB61AB72ABE0911B15CA
S1132430F0911C15EC0FFD1F81E083ABA114B104D6
S1132440C104D10431F041E0C601B50188D90E942C
S113245070030F900FBE0FB6F8940F92E114F104BD
S1132460A1F0E0911B15F0911C15CE01880F991F66
S1132470880F991FE80FF91F87A590A9A1A9B2A9F0
S1132480F70180839183A283B383E0911B15F091BC
S11324901C15EC0FFD1F83A98230E9F4E0911B1594
S11324A0F0911C15CE01880F991F880F991FE80F12
S11324B0F91F87A590A9A1A9B2A94094509460944A
S11324C07094482259226A227B2247A650AA61AA04
S11324D072AA81E001C080E020911B1530911C1587
S11324E0C20FD31F1BAA0F900FBEDF91CF911F9174
S11324F00F91FF90EF90DF90CF90BF90AF907F90BF
S11325006F905F904F9008958F929F92AF92BF9279
S1132510EF92FF920F93CF93DF93DC010FB6F89401
S11325200F92E114F10489F0E62FF0E0EE0FFF1FA3
S1132530EE0FFF1FE80FF91F87A490A8A1A8B2A867
S1132540F70180829182A282B38270E0FD01E60FDE
S1132550F71F83A992E093AB023001F118F4013024
S113256031F04DC0033079F10430D1F148C0660F29
S1132570771F660F771FFD01E60FF71F87A490A84A
S1132580A1A8B2A8BA01A901482959296A297B2915
S113259047A750AB61AB72AB01E034C0660F771F45
S11325A0660F771FFD01E60FF71F47A550A961A924
S11325B072A94F5F5F4F6F4F7F4F47A750AB61AB1F
S11325C072AB01E01FC0660F771F660F771FFD0116
S11325D0E60FF71F27A730AB41AB52AB01E012C0A7
S11325E0823079F0660F771F660F771FFD01E60FC3
S11325F0F71F27A730AB41AB52AB01E003C001E0AA
S113260001C000E0813009F069C01C96ED91FC9195
S11326101D971696CD91DC91179718968D919C91E4
S113262019979F838E831896CD91DC9119971696EE
S11326308D919C9117979D838C83818192819D01BB
S11326402E5F3F4F8217930731F418968D919C911A
S11326501997928381831D961C921E921C978081E8
S1132660815080835A96EC915A9780916B148E17FF
S113267010F4E0936B148BE08E9FF0011124E3556A
S1132680FB4E0180F281E02D1796FC93EE93169792
S11326904681578119965C934E931897C681D781CA
S11326A03D832C83378326835A96EC915A978E9FC9
S11326B0F0011124E355FB4E1D96FC93EE931C97F9
S11326C080818F5F80835A969C91E0911B15F091D5
S11326D01C15828D891710F40E9470030F900FBE91
S11326E0802FDF91CF910F91FF90EF90BF90AF902B
S11326F09F908F9008958F929F92AF92BF92CF92A6
S1132700DF92EF92FF920F93CF93DF93DC01E114FA
S1132710F10489F0E62FF0E0EE0FFF1FEE0FFF1F2C
S1132720E80FF91F87A490A8A1A8B2A8F701808296
S11327309182A282B38270E0FD01E60FF71F93A994
S113274082E083AB023001F118F4013031F04DC066
S1132750033079F10430D1F148C0660F771F660F5A
S1132760771FFD01E60FF71F87A490A8A1A8B2A8C0
S1132770BA01A901482959296A297B2947A750ABDD
S113278061AB72AB81E034C0660F771F660F771FB1
S1132790FD01E60FF71F47A550A961A972A94F5F74
S11327A05F4F6F4F7F4F47A750AB61AB72AB81E078
S11327B01FC0660F771F660F771FFD01E60FF71F17
S11327C027A730AB41AB52AB81E012C0923079F015
S11327D0660F771F660F771FFD01E60FF71F27A708
S11327E030AB41AB52AB81E003C081E001C080E07B
S11327F0913009F096C090915C1491115FC01C96C1
S1132800ED91FC911D971696CD91DC911797189632
S11328102D913C9119973F832E831896CD91DC918D
S1132820199716962D913C9117973D832C834181DE
S113283052819D012E5F3F4F4217530731F4189682
S11328404D915C911997528341831D961C921E925F
S11328501C979081915090835A96EC915A9790913D
S11328606B149E1710F4E0936B149BE09E9FF00191
S11328701124E355FB4E0180F281E02D1796FC9361
S1132880EE9316974681578119965C934E93189749
S1132890C681D7813D832C83378326835A96EC9156
S11328A05A979E9FF0011124E355FB4E1D96FC930D
S11328B0EE931C9790819F5F908321C068E874E138
S11328C0FB01C181D2815396DC93CE9352972E8122
S11328D03F8155963C932E9354974E815F819D0181
S11328E0225F3F4FFA01358324833F832E83599619
S11328F07C936E935897FB0190819F5F90835A96C7
S11329002C91E0911B15F0911C15928D921748F4AF
S1132910C114D10419F091E0F601908391E09093F1
S11329206514DF91CF910F91FF90EF90DF90CF90DE
S1132930BF90AF909F908F900895009721F480915D
S11329401B1590911C150FB6F8940F9270E0FC01C2
S1132950E60FF71F23A9223031F4FC01E60FF71F1D
S113296013AA81E001C080E00F900FBE0895DC013E
S1132970E0912715F0912815808191E0811190E074
S11329809C93911108C00780F085E02D60817181CE
S113299082819381089560E070E0CB010895CF9225
S11329A0DF92EF92FF920F931F93FC0142835383B4
S11329B0648375839387828704171507260737076F
S11329C0C0F00C191D092E093F0986859785A08939
S11329D0B189081719072A073B0700F5BF016E5F85
S11329E07F4F80912515909126150E94B70280E0B3
S11329F018C00C151D052E053F0528F44C155D0562
S1132A006E057F0568F4BF016E5F7F4F80912715C7
S1132A10909128150E94B70280E003C081E001C0B4
S1132A2081E01F910F91FF90EF90DF90CF90089578
S1132A300FB6F8940F928091231590912415892B49
S1132A40E9F484E395E10E94A20289E295E10E94FF
S1132A50A20284E395E1909328158093271589E2D7
S1132A6095E1909326158093251540E067E08AE070
S1132A700E94550590932415809323150F900FBE43
S1132A800895EF92FF920F93D3DF809123159091D5
S1132A902415892B91F00F2EF1E2EF2EF5E1FF2E94
S1132AA0F02D03E020E030E040EC50E067E472E019
S1132AB088E191E00E94510C01C080E00F91FF90E9
S1132AC0EF9008958F929F92AF92BF92CF92DF9230
S1132AD0EF92FF920F931F93CF93DF93CDB7DEB79F
S1132AE027970FB6F894DEBF0FBECDBFE091231534
S1132AF0F0912415309781F169832A833B834C83B9
S1132B005D839F838E836630F4F4EEDB823069F458
S1132B1000E0A7019601BE016F5F7F4F80912315EE
S1132B20909124150E94780518C000E020E030E060
S1132B30A901BE016F5F7F4F8091231590912415E9
S1132B400E9478050AC020E0A801BE016F5F7F4F94
S1132B50CF010E94280601C080E027960FB6F894A2
S1132B60DEBF0FBECDBFDF91CF911F910F91FF90BC
S1132B70EF90DF90CF90BF90AF909F908F9008958B
S1132B808F929F92AF92BF92CF92DF92EF92FF9279
S1132B900F931F93CF93DF933BC00780F085E02D05
S1132BA080809180A280B380C085D1858E010E5F24
S1132BB01F4FC8010E94F402EC89FD89CE011995CA
S1132BC08E8982FF25C08E859F85A889B989880D45
S1132BD0991DAA1DBB1D88169906AA06BB0670F48A
S1132BE08A839B83AC83BD83DB87CA87B8018091CA
S1132BF02715909128150E94B7020AC0C12CD12C28
S1132C00760100E010E0A501940160E0CE015ADFF6
S1132C10E0912715F091281580818111BECF809114
S1132C202515909126159093281580932715F093D8
S1132C302615E0932515DF91CF911F910F91FF90F9
S1132C40EF90DF90CF90BF90AF909F908F900895BA
S1132C50CF92DF92EF92FF92CF93DF93EC010E9429
S1132C60DB0C6B017C0180911D1590911E15A091C8
S1132C701F15B0912015C816D906EA06FB0620F4E4
S1132C807FDF81E0888301C01882C0921D15D09235
S1132C901E15E0921F15F0922015C701B601DF91B1
S1132CA0CF91FF90EF90DF90CF9008954F925F9275
S1132CB06F927F928F929F92AF92BF92CF92DF9248
S1132CC0EF92FF920F931F93CF93DF934B015C011D
S1132CD029013A01E0912715F09128150780F08524
S1132CE0E02DC085D185CE0102960E94F4028E8922
S1132CF082FF1BC04E855F8568897989480D591DFF
S1132D006A1D7B1D7501640193018201CE0147DEBA
S1132D10882369F0C12CD12C760100E010E0A501D4
S1132D20940160E0CE01CEDE02C08E7F8E8BEC89F2
S1132D30FD89CE011995DF91CF911F910F91FF90DD
S1132D40EF90DF90CF90BF90AF909F908F907F9047
S1132D506F905F904F9008958F929F92AF92BF9221
S1132D60CF92DF92EF92FF921F93CF93DF931F9244
S1132D70CDB7DEB76B017C01142F0E94D50CCE01B8
S1132D80019666DF4B015C01898181112DC011110F
S1132D900DC08C149D04AE04BF0440F00E94150EB7
S1132DA0A5019401C701B60181DF20C0112341F0C0
S1132DB0E0912515F0912615808111E0811110E034
S1132DC0B701A601481959096A097B09212F809185
S1132DD02315909124150E94F2060E94150E81116C
S1132DE005C00E94700302C00E94150E0F90DF916F
S1132DF0CF911F91FF90EF90DF90CF90BF90AF9055
S1132E009F908F900895AF92BF92CF92DF92EF92EE
S1132E10FF920F931F93CF93DF93CDB7DEB728971D
S1132E200FB6F894DEBF0FBECDBF82C08981882360
S1132E300CF47EC0AE80BF80D5011C968D919C9110
S1132E401D97892B21F0C50102960E94F402CE0140
S1132E500896FEDE8B019C01E9810E2E000CFF0B0F
S1132E60EA30F10508F064C08827EE58FF4F8F4F11
S1132E700C945D2DF50186898160868BCA80DB8088
S1132E80EC80FD8046855785608971894C0D5D1DF8
S1132E906E1D7F1DC50183DD882309F449C0D5015A
S1132EA05496ED91FC915597C5011995F5018689C4
S1132EB082FF3EC04A815B816C817D8186859785D6
S1132EC0A089B1899A01AB01280F391F4A1F5B1FE2
S1132ED0C12CD12C760100E010E060E0C501F2DDE8
S1132EE027C0D50156968C9156978E7F56968C9313
S1132EF01FC0F50186898160868B4A815B816C8164
S1132F007D8146875787608B718B400F511F621FED
S1132F10731F68017901C50142DD0AC0F501868984
S1132F2081FD04C0C5010E94650202C08E7F868BAC
S1132F3020E030E0A901BE016F5F7F4F809123152F
S1132F40909124150E946306811170CF28960FB6C4
S1132F50F894DEBF0FBECDBFDF91CF911F910F91CB
S1132F60FF90EF90DF90CF90BF90AF9008950895B9
S1132F7084B1806884B985B1806885B9089583B1C6
S1132F80806883B90895F4DF2FEF80E792E0215041
S1132F9080409040E1F700C00000F1DFF5CFE8DFAA
S1132FA02FEF87EA91E6215080409040E1F700C07E
S1132FB00000E5DFF5CF0F931F93CF93DF93CDB7D9
S1132FC0DEB764970FB6F894DEBF0FBECDBF81E0C5
S1132FD00E944E2732D5AED79F938F938FE492E011
S1132FE09F938F930E94172FA6D6A4D79F938F9356
S1132FF082E692E09F938F930E94172F8E010F5FBA
S11330001F4FC8012CD596D71F930F939F938F936F
S11330108BE792E09F938F930E94172FC8013BD5B3
S113302089D79F938F931F930F938FE892E09F9379
S11330308F930E94172FA80164EA72E085EC92E056
S113304058D778D79F938F931F930F9384EA92E076
S11330509F938F9385EC92E09F938F9386ED92E0FC
S11330609F938F930E94172F49D564D79F938F9373
S11330708CE093E09F938F930E94172F0FB6F894E0
S1133080DEBF0FBECDBF81E033D654D79F938F935D
S11330908BE193E09F938F930E94172F84EF91E02D
S11330A032D648D79F938F9381E08F9384EF8F9389
S11330B08CE393E09F938F930E94172F0FB6F8949D
S11330C0DEBF0FBECDBF1AE080E01ED5082F32D779
S11330D09F938F931F921F938CE593E09F938F93FD
S11330E00E94172F0F900F900F900F900F900F903A
S11330F0083059F080E00E94B22766E371E080E076
S113310090E00E94560F1150F9F6083021F481E046
S11331100E94942709C081E00E94A32780E00E94B6
S113312071270E947003FDCF64960FB6F894DEBF3A
S11331300FBECDBFDF91CF911F910F910895CF9313
S1133140DF9300D01F92CDB7DEB781E068D462E090
S113315070E080E090E00E94560F80E060D466E961
S113316070E080E090E00E94560F12D424DFEFE379
S1133170F5E186E0818382E080830E94DB0C698331
S11331807A838B839C8348EA58E460E070E0CE0144
S113319001960E94F10EEFE3F5E180E3828389E377
S11331A0838382E0848383EA858384E086838AE15F
S11331B0878383E00E94C4276FE375E180E0CDD468
S11331C0B9D69F938F938CE793E09F938F930E943C
S11331D0172F0F900F900F900F90D5CFEF92FF9273
S11331E00F93E12CF12C082F20E030E048E851E067
S11331F061E973E08FE998E10E94510C0F91FF900F
S1133200EF900895CF93DF9300D01F92CDB7DEB730
S11332100E94DB0C69837A838B839C834BD281115C
S11332202DC043E050E060E070E0CE0101960E94C2
S1133230F10E55D2811122C043E050E060E070E00D
S1133240CE0101960E94F10E5BD26B017C016DD21E
S113325042E087D04AEF50E060E070E0CE01019692
S11332600E94F10E42E0C701B6017BD04AEF50E064
S113327060E070E0CE0101960E94F10E82B18058A8
S113328082B9CCCFEF92FF920F938091B0169091B8
S1133290B116892B89F481E00E941C069093B11623
S11332A08093B016009741F000E020E030E0A901DF
S11332B060E070E00E947805E12CF12C01E020E050
S11332C030E040EC50E068E973E082E099E10E946C
S11332D0510C0F91FF90EF90089581B1816881B9ED
S11332E080E00E94D923CEDF80E090E0EFD0E3D0ED
S11332F0C9D185E00E94002760E070E081E04FD3EF
S113330083E06CCF0895E9DF83EA93E00E942A2FDB
S11333100E949D0CFFCF81B38F6081BB2898289AAF
S113332021B381E090E00090851502C0880F991FB9
S11333300A94E2F78095822381BBE0915515F091C0
S11333405615309709F0199508959FB7F894E1E858
S1133350F5E110828EE981838AE0828383839FBFB3
S11333600895BF92CF92DF92EF92FF920F931F9333
S1133370CF93DF936B017C01B42E1092581583E038
S1133380841798F1642F70E080E090E00E948D2A09
S11333909B01AC0160E070E080E291E40E94D12BDB
S11333A0A70196010E946E2B20E030E040E05FE32D
S11333B00E9490290E94CA2A0E945C2AAB017723AA
S11333C064F444275527461B570B21E0483E83E00D
S11333D058070CF420E011E00CC021E0403187E2F2
S11333E058070CF420E010E004C040E050E021E075
S11333F010E00FB7F894222311F0A7DF51C0C5E8FD
S1133400D5E10F2EF1E8CF2EF5E1DF2EF02D0F2EB2
S1133410FAE0EF2EF12CF02DCA01B7010E94282DFD
S1133420FC01EB54FC4F80818A93462F572FCC1517
S1133430DD0591F743E050E04B19510914161506C8
S1133440F4F4809181158C3F49F060E019C0FC01CF
S1133450EF57FA4E30813C3F21F012C080E090E0FB
S113346020E0FC01EF57FA4E1082622F2F5F822F6B
S1133470022E000C990B841795074CF301C060E0F1
S1133480112331F0E62FF0E0EF57FA4E82E080830B
S1133490BB2031F0FA01EF57FA4E808181608083BE
S11334A00FBFDF91CF911F910F91FF90EF90DF90AD
S11334B0CF90BF90089585B5856085BD089585B585
S11334C0887F85BD81B38F6081BB08958F92AF9251
S11334D0CF92EF920F931F93CF93DF93EC0180B3BE
S11334E08F6080BB81B38F6081BB209A8BE899E1A8
S11334F09F938F93812CA12CC12CE12C00E010E030
S113350020E240E063E080E10E943B249093871531
S11335108093861589E187BD84B5826084BDEEE61B
S1133520F0E0808182608083CADFD0935615C09317
S113353055150F900F90DF91CF911F910F91EF9040
S1133540CF90AF908F9008951F920F920FB60F9265
S113355011240BB60F922F933F934F935F936F9366
S11335607F938F939F93AF93BF93EF93FF93809138
S11335705815882369F12091591530915A15253F22
S113358091E0390738F42F5F3F4F30935A15209359
S113359059151EC010925A1510925915E0915715DD
S11335A02E2F30E090E004972817390714F4EF5FCA
S11335B001C0E0E0E0935715F0E0E55AFA4EA1E8C7
S11335C0B5E125E835E181918D93A217B307D9F7C9
S11335D08091851590E0019683709078992324F466
S11335E001978C6F9F6F0196809385159927FC0135
S11335F0EF57FA4E608160958091861590918715FA
S11336000E941225FF91EF91BF91AF919F918F91ED
S11336107F916F915F914F913F912F910F900BBECE
S11336200F900FBE0F901F9018956530F1F4FA01BA
S113363080818F7390E0982F88272181822B90932B
S11336400A02809309028281F0E48F9FC001112451
S1133650FA01238126952695822B90930802809364
S1133660070281E0809388150895643051F080E06A
S113367090E4909308028093070290930A02809347
S1133680090208950F931F9305E11BE120E034E242
S113369044EF50E060E087E20E94E62790938A15A9
S11336A08093891521E0892B09F020E0822F1F9156
S11336B00F9108958091891590918A15009759F07A
S11336C040E060E070E00E943728843031F41092CA
S11336D0881580E0089582E0089583E0089580913C
S11336E0891590918A15009739F064E00E94832827
S11336F0853021F083E0089582E0089580E0089504
S11337006091090270910A0280E090E00E948D2A83
S113371020E030E048EC52E40E946E2B20E038EFC9
S11337204FE756E40C94F4290895609107027091D0
S1133730080280E090E00E948D2A20E030E045E21B
S113374053E40E946E2B20E038EF4FE756E40E94CA
S1133750F42920E030E040E252E40C948F290895EB
S11337600F931F93CF93DF931F921F92CDB7DEB7B2
S11337708C0119822DC0E091C215EC3250F481E025
S11337808E0F8093C215F0E0EC50FA4E8A8180834C
S113379002C01092C2158A818A30D1F44091C215B8
S11337A050E0FA01EE50FA4E1082415051099E0148
S11337B02F5F3F4F64EF75E18091C5159091C61559
S11337C00E947609898181110E9470031092C215AA
S11337D0BE016E5F7F4FC80156D5882361F20F90FA
S11337E00F90DF91CF911F910F9108950F931F9325
S11337F0CF93DF938C01EB018091C5159091C61591
S11338000E948308B8018BE895E10E94F82E209766
S113381079F0EBE8F5E101900020E9F7319780E2D7
S113382090E091838083BE018BE895E10E94ED2EA8
S1133830EBE8F5E1DF010D900020E9F711978DE049
S11338409AE011969C938E9312961C9201900020FC
S1133850E9F73197EB58F541AE2F8BE895E1AC01D0
S11338606A2F8091C7159091C815B8D4811111C0E1
S113387008E215E020E030E04DE250E06EE476E14D
S11338808091C5159091C6150E94BA098EE496E1FF
S113389002C080E090E0DF91CF911F910F910895D5
S11338A02F923F924F925F926F927F928F929F924C
S11338B0AF92BF92CF92DF92EF92FF920F931F933A
S11338C0CF93DF935C01FC0101900020E9F731976D
S11338D06F01C81AD90A5C2C0F2EFEE58F2EF6E074
S11338E09F2EF02DE12CF12C4C2C3701F401018199
S11338F01281E80109900020E9F72197C01BD10B40
S11339003C2EF9E0CF16D10458F0F4012080FEE0FB
S11339102F1206C0B801C5010E94C82E892B09F5D3
S1133920442D351408F44C2F50E0B801C5010E9411
S1133930FF2E892B49F4F301EE0FFF1FE60DF71D4F
S1133940E25AF94F20800DC08FEFE81AF80AE3E03D
S11339508E0E911CF1E1EF16F10439F668942224DD
S113396024F8822DDF91CF911F910F91FF90EF905A
S1133970DF90CF90BF90AF909F908F907F906F908B
S11339805F904F903F902F90089530DF89CF089536
S11339908091C5159091C6150C94830808958F9253
S11339A09F92AF92CF92EF920F931F93CF93C82F12
S11339B08B0141E060E070E088EC90E00E945108E7
S11339C09093C6158093C5151093C4150093C31521
S11339D00F2EF0EB8F2EFBE19F2EF02D6894AA247E
S11339E0A6F86894CC24C6F8E12C00E023E040E07B
S11339F051EE60E070E08C2F1ED39093C815809335
S1133A00C715E7E0F1E0808180618083CF911F9149
S1133A100F91EF90CF90AF909F908F90089588234F
S1133A2031F0E8E0F1E080818F7E80830895E8E062
S1133A30F1E0808180618083089560E070E084EE2D
S1133A4093E0D4DEEEE4F6E101900020E9F731974B
S1133A50EE54F64181E0759708F080E00895CF9325
S1133A60DF93EC0160E070E085EF93E0BFDEEEE40D
S1133A70F6E101900020E9F7EF55F64139F46EE4E0
S1133A8076E1CE010E94F82E80E002C0188281E027
S1133A90DF91CF910895FC0101900020E9F79F0187
S1133AA0215131092817390729F4BC0183E294E034
S1133AB06CCF089589E00895FC0101900020E9F796
S1133AC09F01215131092817390729F4BC0182E3E8
S1133AD094E05BCF089589E00895FC0101900020F3
S1133AE0E9F79F01215231092817390729F4BC014C
S1133AF081E494E04ACF089589E0089560E070E09D
S1133B0080E894E042CF08950F931F93E82FF0E0EC
S1133B10EE0FFF1FE65AF94F6081718189E894E046
S1133B2034DF811114C008E215E020E030E04DE2FA
S1133B3050E06EE476E18091C5159091C6150E941F
S1133B40BA09882321F08EE496E1AADE03C08EE44C
S1133B5096E1A6DE1F910F9108950F931F93CF93C3
S1133B60DF931F92CDB7DEB7DB0111969C911197BD
S1133B70953108F0B4C0992381F160E070E0272FFB
S1133B8030E0462F50E0FD01E40FF51F928192953D
S1133B909F709A3010F0995C01C0905DF901E15278
S1133BA0FA4E90832F5F3F4FFD01E40FF51F928182
S1133BB09F70492F50E04A30510514F0995C01C0C0
S1133BC0905DF901E152FA4E90837E5F6F5F11962A
S1133BD09C911197691798F201C070E0E72FF0E00B
S1133BE0E152FA4E10824C91811103C082E994E0B3
S1133BF002C084E994E02FED35E13F932F931F92A7
S1133C004F939F938F9388E994E09F938F9381E2DE
S1133C1096E19F938F930E945A2F60E070E081E2B7
S1133C2096E1B3DE0FB6F894DEBF0FBECDBF8111AF
S1133C3059C008E215E020E030E04DE250E06EE4C7
S1133C4076E18091C5159091C6150E94BA09882322
S1133C5009F447C08EE496E123DE8E3009F042C0B9
S1133C6087E089838091C3159091C415892BA9F1AC
S1133C70BE016F5F7F4F8EE496E168D18093C915D2
S1133C80E981F0E0E25BF94EDF010D900020E9F7F5
S1133C901197AE1BBF0BAA2391F0BB27CD0101974F
S1133CA09C0112F42F5F3F4F359527952093CA1539
S1133CB0AF014F5F5F4F64E18BEC95E173D101E09D
S1133CC010E020E030E046E150E069EC75E18091DD
S1133CD0C3159091C4150E94B3088EE003C084E11B
S1133CE001C080E00F90DF91CF911F910F91089553
S1133CF0813019F068EA74E002C061E875E08CEA8A
S1133D0094E043CE08959F938F938DED94E09F9319
S1133D108F9381E296E19F938F930E945A2F60E0E4
S1133D2070E081E296E131DE0F900F900F900F90DA
S1133D300F900F9008952F923F924F925F926F923F
S1133D407F928F929F92AF92BF92CF92DF92EF9227
S1133D50FF920F931F93CF93DF93CDB7DEB7A09756
S1133D600FB6F894DEBF0FBECDBF6AE075E086E102
S1133D7095E03CDD95DD8111A3C080E2E2E2F2E052
S1133D80DE01119601900D928A95E1F79E012F5F55
S1133D903F4F6901E12CF12C0F2EF2E2AF2EF5E03A
S1133DA0BF2EF02D01E216E10F2EFBE34F2EF5E0BE
S1133DB05F2EF02D0F2EF2E58F2EF5E09F2EF02DC5
S1133DC00F2EFCE66F2EF5E07F2EF02D3E2C2F2CCF
S1133DD0FF92EF92BF92AF921F930F930E945A2FBC
S1133DE060E070E0C80102DD5BDD0F900F900F9082
S1133DF00F900F900F90811163C032E03E15E8F4EC
S1133E00F60183818F9382818F9381818F93808147
S1133E108F93FF92EF925F924F921F930F930E94A2
S1133E205A2F60E070E0C801E1DC3ADD0FB6F89487
S1133E30DEBF0FBECDBF811143C02F923F929F9230
S1133E408F921F930F930E945A2F60E070E0C80175
S1133E50CDDC26DD0F900F900F900F900F900F90F8
S1133E6081112EC02F923F927F926F921F930F93D6
S1133E700E945A2F60E070E0C801B8DC11DD0F9099
S1133E800F900F900F900F900F90811119C03FEF7A
S1133E90E31AF30A84E0C80ED11C98E0E916F10491
S1133EA009F094CF60E070E084E895E09FDCF8DCF2
S1133EB0811106C060E070E085E995E097DCF0DCF4
S1133EC0A0960FB6F894DEBF0FBECDBFDF91CF91A1
S1133ED01F910F91FF90EF90DF90CF90BF90AF9024
S1133EE09F908F907F906F905F904F903F902F9016
S1133EF00895EF92FF920F931F93CF93DF93EC01FA
S1133F008B017A0181E0F4DE81110DC0CE01D4DD94
S1133F10811109C0C801E1DD811105C0C701BBDD04
S1133F20811101C0EBDDDF91CF911F910F91FF90C3
S1133F30EF90089590E0FC01EE0FFF1F8E0F9F1F7E
S1133F40FC01E25AF94F818192810895DC010097C6
S1133F5029F1FB012081FC0101900020E9F7319750
S1133F60E81BF90B822F90E0E817F907C8F080E00E
S1133F7008C0880F382F330F330F830F8053890FF6
S1133F802F5FFD01E20FF11D908130ED390F3A30C2
S1133F9010F49111EECFFB012083089580E0089581
S1133FA080E008950F931F93CF93DF93DC01EA0120
S1133FB02097E1F1FA0101900020E9F73197E41B21
S1133FC0F50B329710F532C08D01040F151F30E048
S1133FD0AE01420F531FFA019081913428F0975398
S1133FE0592F5295507F03C0592F5295507F2C0F53
S1133FF03D1FF9019181913410F0975301C0905302
S1134000950FF80190838F5F01C080E0282F220F65
S1134010482F50E0FE0101900020E9F73197EC1B96
S1134020FD0B4E175F0710F48613CECFDF91CF91AF
S11340301F910F9108952F923F924F925F926F922A
S11340407F928F929F92AF92CF92EF92FF920F93B3
S11340501F93CF93DF93CDB7DEB7F82E2A013B0130
S113406088E090E00E94932D8C018F2D90E0FC015C
S1134070EE0FFF1FE558F94E11830083011511055A
S113408009F46FC0880F991FFC01E55FFD4F808123
S11340909181D8018D939C938C2D90E0880F991F6A
S11340A0880F991F0E94932D1C0186E090E00E94C6
S11340B0932D7C014C2DB1010E947329F801F582E6
S11340C0E4828A2D90E0880F991F880F991F0E941F
S11340D0932D1C0186E090E00E94932D7C014A2DD3
S11340E0B1010E947329D8011396FC92EE921297A3
S11340F017969C928E921697FFB6F894ED91FC91C8
S1134100119736978081826080838D909C90C30143
S1134110B2010E948D2A20E030E040E051E40E9488
S11341206E2B9B01AC0160E074E284E79BE40E9487
S1134130F42920E030E040E85FE30E948F290E94E8
S1134140612AF40132976083D801ED91FC911197B3
S1134150359788E98083ED91FC91349786E08083DC
S1134160FFBEC801DF91CF911F910F91FF90EF9097
S1134170CF90AF909F908F907F906F905F904F9073
S11341803F902F900895CF93DF93DC01892B01F1A9
S11341901296ED91FC911397938182812581981B4E
S11341A0922384819817B1F0838126952823C081B6
S11341B0D181C20FD11D68838F5F95818923838349
S11341C0ED91FC91359780818062808380E003C00B
S11341D081E001C082E0DF91CF910895EF92FF92D8
S11341E00F931F93CF93DF937C01009709F441C091
S11341F0DC011296ED91FC91139793818281981BB7
S1134200858198238481891B8617A8F1662341F14F
S1134210842F952FDC016150462F50E04F5F5F4F94
S1134220480F591FE701EA81FB819381828125812F
S1134230981B92238481981779F08C919381269509
S11342402923608171818B01020F111DE80188838C
S11342509F5F8581982393831196A417B50711F75F
S1134260D701ED91FC91359780818062808380E055
S113427003C081E001C082E0DF91CF911F910F91D3
S1134280FF90EF9008950097D1F0DC011496ED9122
S1134290FC91159793818281981799F09281858179
S11342A086958923A081B181A80FB11D8C91DB0172
S11342B08C939F5F85819823928380E0089581E0A9
S11342C0089583E008951F920F920FB60F92112460
S11342D00BB60F922F933F934F935F936F937F93FC
S11342E08F939F93AF93BF93CF93DF93EF93FF93FA
S11342F0A0917B16B0917C16109711F16091C600C5
S11343001496ED91FC911597938182812581981BD8
S113431092238481981761F0838126952823C08194
S1134320D181C20FD11D68838F5F958189238383D7
S11343301696ED91FC911797309711F0CD011995D0
S1134340FF91EF91DF91CF91BF91AF919F918F91A9
S11343507F916F915F914F913F912F910F900BBE81
S11343600F900FBE0F901F9018951F920F920FB6CB
S11343700F9211240BB60F922F938F939F93AF93A9
S1134380BF93EF93FF93E0917B16F0917C163097E7
S1134390B9F00280F381E02D938182819817B1F006
S11343A092818581282F26952923A081B181A20F8E
S11343B0B11D2C919F5F892382832093C6000BC07B
S11343C0E1ECF0E080818F7D808305C0E1ECF0E0DA
S11343D080818F7D8083FF91EF91BF91AF919F91F9
S11343E08F912F910F900BBE0F900FBE0F901F90C7
S11343F018951F920F920FB60F9211240BB60F92BD
S11344002F933F934F935F936F937F938F939F93D8
S1134410AF93BF93CF93DF93EF93FF93A0917D1658
S1134420B0917E16109711F16091CE001496ED9123
S1134430FC911597938182812581981B9223848115
S1134440981761F0838126952823C081D181C20FFA
S1134450D11D68838F5F9581892383831696ED919F
S1134460FC911797309711F0CD011995FF91EF91B9
S1134470DF91CF91BF91AF919F918F917F916F9178
S11344805F914F913F912F910F900BBE0F900FBEF4
S11344900F901F9018951F920F920FB60F92112430
S11344A00BB60F922F938F939F93AF93BF93EF937A
S11344B0FF93E0917D16F0917E163097B9F002805B
S11344C0F381E02D938182819817B1F092818581E7
S11344D0282F26952923A081B181A20FB11D2C91EB
S11344E09F5F892382832093CE000BC0E9ECF0E028
S11344F080818F7D808305C0E9ECF0E080818F7D31
S11345008083FF91EF91BF91AF919F918F912F91F4
S11345100F900BBE0F900FBE0F901F9018951F9217
S11345200F920FB60F9211240BB60F922F933F9355
S11345304F935F936F937F938F939F93AF93BF93A7
S1134540CF93DF93EF93FF93A0917F16B0918016E2
S1134550109711F16091D6001496ED91FC91159786
S1134560938182812581981B92238481981761F01D
S1134570838126952823C081D181C20FD11D6883F0
S11345808F5F9581892383831696ED91FC9117970C
S1134590309711F0CD011995FF91EF91DF91CF91F3
S11345A0BF91AF919F918F917F916F915F914F9147
S11345B03F912F910F900BBE0F900FBE0F901F9045
S11345C018951F920F920FB60F9211240BB60F92EB
S11345D02F938F939F93AF93BF93EF93FF93E091A8
S11345E07F16F09180163097B9F00280F381E02DA8
S11345F0938182819817B1F092818581282F269525
S11346002923A081B181A20FB11D2C919F5F892321
S113461082832093D6000BC0E1EDF0E080818F7D92
S1134620808305C0E1EDF0E080818F7D8083FF9180
S1134630EF91BF91AF919F918F912F910F900BBEEE
S11346400F900FBE0F901F9018951F920F920FB6E8
S11346500F9211240BB60F922F933F934F935F93B6
S11346606F937F938F939F93AF93BF93CF93DF9376
S1134670EF93FF93A0918116B0918216109711F1D8
S1134680609136011496ED91FC9115979381828186
S11346902581981B92238481981761F08381269544
S11346A02823C081D181C20FD11D68838F5F95817A
S11346B0892383831696ED91FC911797309711F017
S11346C0CD011995FF91EF91DF91CF91BF91AF91FA
S11346D09F918F917F916F915F914F913F912F9116
S11346E00F900BBE0F900FBE0F901F9018951F9246
S11346F00F920FB60F9211240BB60F922F938F9334
S11347009F93AF93BF93EF93FF93E0918116F09142
S113471082163097B9F00280F381E02D9381828173
S11347209817B1F092818581282F26952923A0819D
S1134730B181A20FB11D2C919F5F892382832093A5
S113474036010BC0E1E3F1E080818F7D808305C0F9
S1134750E1E3F1E080818F7D8083FF91EF91BF9150
S1134760AF919F918F912F910F900BBE0F900FBE21
S11347700F901F901895CF93DF931F92CDB7DEB79C
S1134780BE016F5F7F4F80918316909184167BDD0D
S11347908111F6CF898190E00F90DF91CF91089538
S11347A0682F8091831690918416EDDC80E090E070
S11347B008958F929F92AF92CF92EF920F93812C94
S11347C0912C6894AA24A7F86894CC24C7F8E12C07
S11347D000E023E040E051EE60E070E02CDC9093D8
S11347E0841680938316E6EBF6E183E192E09183ED
S11347F08083938382830F91EF90CF90AF909F90AB
S11348008F900895E0918616F09187163097F9F00D
S1134810A081B1811097D9F02381213069F44C91A2
S113482021E030E0028002C0220F331F0A94E2F735
S1134830209524232C930BC04C9121E030E002807E
S113484002C0220F331F0A94E2F7242B2C93909377
S1134850871680938616009769F0109288162CB5F7
S11348602F732CBDFC0124812CBD85818DBD8CB59D
S113487080648CBD08954F925F926F927F928F9265
S11348809F92AF92BF92CF92DF92EF92FF920F93DB
S11348901F93CF93DF93CDB7DEB7982EB62ED42EC9
S11348A0F22E80918516811106C084B1876084B987
S11348B081E0809385168CE090E00E94932D3C016A
S11348C0DC0111961C930E931296EC921297139698
S11348D0CC9213978D2D880F880FF82AEB2DF0E0DA
S11348E0EF56F94F8081982A8F2D892914968C933D
S11348F0B3E0BB1518F481E0F3018583A11006C071
S1134900D30119961C921E92189714C06A2D70E058
S113491084E090E00E94792D2C0161E070E086E053
S113492090E00E94792D6C014A2DB201DCD4F30190
S1134930D186C086811006C0D30117961C921E92A0
S1134940169714C0682D70E084E090E00E94792DE1
S11349505C0161E070E086E090E00E94792D6C01DA
S1134960482DB501C0D4F301D782C6828C899D89B4
S1134970D3011B969C938E931A970115110559F038
S1134980F801229181E090E002C0880F991FEA9417
S1134990E2F7822B80832FB7F894409186165091CA
S11349A087167092871660928616D301ED91FC915A
S11349B01197309701F113968C911397813071F40C
S11349C0308181E090E012960C9002C0880F991F0C
S11349D00A94E2F78095832380830DC0308181E0BF
S11349E090E0D30112960C9002C0880F991F0A948C
S11349F0E2F7832B808350938716409386162FBF4C
S1134A00C301DF91CF911F910F91FF90EF90DF9041
S1134A10CF90BF90AF909F908F907F906F905F905A
S1134A204F9008951F93CF93DF93009709F46AC0C2
S1134A30162FEC018091861690918716C817D90716
S1134A4011F0CE01DFDE8FB72FB7F894809188166E
S1134A50811131C081E080938816A0918616B091AF
S1134A608716ED91FC9111973097F9F013968C917C
S1134A701397813069F4308181E090E012960C90B4
S1134A8002C0880F991F0A94E2F7832B80830DC01C
S1134A90308181E090E012960C9002C0880F991F3B
S1134AA00A94E2F78095832380838CB580688CBD5B
S1134AB01EBD80E025C0EE81FF813097E1F0348196
S1134AC0838142819581841B89233817B1F08381C6
S1134AD04281841B8923381791F08381969598230A
S1134AE0A081B181A90FB11D1C938F5F958189238A
S1134AF0838380E005C082E003C081E001C080E0E0
S1134B002FBF01C083E0DF91CF911F9108951F92C1
S1134B100F920FB60F9211240BB60F922F933F935F
S1134B204F935F936F937F938F939F93AF93BF93B1
S1134B30CF93DF93EF93FF936EB5A0918616B09158
S1134B4087161896ED91FC9119973097A1F08381FF
S1134B5022819581821B89232481821761F08381BC
S1134B6096959823C081D181C90FD11D68838F5F29
S1134B709581892383831696ED91FC91179730973D
S1134B8099F093818281981779F092818581282FF9
S1134B9026952923A081B181A20FB11D2C919F5F7D
S1134BA0892382832EBD2DC08CB58F778CBD109246
S1134BB08816A0918616B0918716ED91FC911197F5
S1134BC03097F9F013968C911397813071F420810A
S1134BD081E090E012960C9002C0880F991F0A940D
S1134BE0E2F78095822380830CC0208181E090E0ED
S1134BF012960C9002C0880F991F0A94E2F7822B38
S1134C0080838091861690918716DC011A96ED9127
S1134C10FC911B97309709F01995FF91EF91DF9163
S1134C20CF91BF91AF919F918F917F916F915F9140
S1134C304F913F912F910F900BBE0F900FBE0F908D
S1134C401F90189590E0FC01EE0FFF1FE80FF91F6D
S1134C50EE0FFF1FE757F94E238121111FC09C015E
S1134C60220F331FF901E80FF91FEE0FFF1FE7575B
S1134C70F94EA081B1814C91F901E80FF91FEE0FB3
S1134C80FF1FE757F94E81E090E0028002C0880FD1
S1134C90991F0A94E2F7842B8C930895FC01EE0F7C
S1134CA0FF1FDF01A80FB91FAA0FBB1FA757B94EDB
S1134CB00D90BC91A02D2C91E80FF91FEE0FFF1F52
S1134CC0E757F94E81E090E0028002C0880F991FF7
S1134CD00A94E2F7809582238C93089590E0FC0176
S1134CE0EE0FFF1FE80FF91FEE0FFF1FE757F94EF6
S1134CF02381211120C09C01220F331FF901E80FE9
S1134D00F91FEE0FFF1FE757F94EA081B1814C91B7
S1134D10F901E80FF91FEE0FFF1FE757F94E81E085
S1134D2090E0028002C0880F991F0A94E2F78095F0
S1134D3084238C930895FC01EE0FFF1FDF01A80F5D
S1134D40B91FAA0FBB1FA757B94E0D90BC91A02D38
S1134D502C91E80FF91FEE0FFF1FE757F94E81E082
S1134D6090E0028002C0880F991F0A94E2F7822B18
S1134D708C930895CC24C394D12C6894BB24B2F8AA
S1134D80C9E8D6E110E08C81813081F018F18230DD
S1134D9061F5E881F9812081C6010A8002C0880F8B
S1134DA0991F0A94E2F7822780831FC08D818F5F49
S1134DB0863010F48D8319C01D82E881F981208129
S1134DC0C6010A8002C0880F991F0A94E2F782275D
S1134DD080830BC00D81002329F0812F7FDF0150D8
S1134DE00D8303C0BC82812F2DDF1F5F26961430F4
S1134DF051F66CE070E080E090E00E94560FC0CF66
S1134E00EF92FF920F931F93CF93DF93082F80E4C9
S1134E1087B9C9E8D6E10F2EF8E2EF2EF12CF02D78
S1134E20F982E88286E08A831B8214E01C8380E096
S1134E3009DF80E887B9FF82EE8287E088871986D8
S1134E401A8781E0FFDE80E283BB84E390E09D87E4
S1134E508C8785E08E871F86188B82E0F3DE80E1E5
S1134E608093010182E091E09B8B8A8B1C8B1D8ACD
S1134E701E8B83E0E7DEE12CF12C20E030E040ECF7
S1134E8050E068E976E08AEB96E20E94510CDF91EB
S1134E90CF911F910F91FF90EF900895CF93DF93DF
S1134EA090E0FC01EE0FFF1FDF01A80FB91FAA0F4E
S1134EB0BB1FA757B94ECD91DC911197488121E0D2
S1134EC030E012960C90129702C0220F331F0A94FE
S1134ED0E2F724272883FD0181E08483DF91CF91C9
S1134EE00895CF93DF9390E0FC01EE0FFF1FDF01E5
S1134EF0A80FB91FAA0FBB1FA757B94ECD91DC91BC
S1134F001197488121E030E012960C90129702C06C
S1134F10220F331F0A94E2F724272883FD0182E03D
S1134F208483DF91CF910895282F30E0F901EE0FAB
S1134F30FF1FE20FF31FEE0FFF1FE757F94E93E039
S1134F409483CCCE0895282F30E0F901EE0FFF1F93
S1134F50E20FF31FEE0FFF1FE757F94E94E094831F
S1134F6071CE089590E0FC01EE0FFF1FDF01A80F42
S1134F70B91FAA0FBB1FA757B94E26E015962C934D
S1134F801597FD011482089590E0FC01EE0FFF1FB8
S1134F90DF01A80FB91FAA0FBB1FA757B94E15965B
S1134FA01C921597FD01148208958091AF1681110A
S1134FB00CC08CE08093B8008FEF8093BB0084E03A
S1134FC08093BC0081E08093AF160895AF92BF92A6
S1134FD0CF92DF92EF92FF920F931F93CF93DF93C1
S1134FE0A82EB62E69017A0184E090E09CD5EC01EC
S1134FF0892B61F1A88281E0B81212C0C701B60101
S113500020EA36E841E050E036D5DA01C90140979C
S1135010A109B109B695A79597958795898311C07C
S1135020C701B60120E83AE146E050E024D5DA01B0
S1135030C9014097A109B109B695A7959795879598
S113504089831B830A838C2F9D2F02C080E090E00C
S1135050DF91CF911F910F91FF90EF90DF90CF9050
S1135060BF90AF9008958091BC0081700895FF9225
S11350700F931F93CF93DF930097D1F14A30D0F56C
S1135080F42E8B01EC01EFDF811136C08091A21662
S11350909091A316C817D90741F087DF89818093BF
S11350A0B800D093A316C093A21681E08F0D80930D
S11350B0A4168881880F8093A516FF2089F0F80133
S11350C0A6EAB6E14FEF4F0D642F70E0CB010196D5
S11350D0B801680F791F81918D93E617F707D9F707
S11350E088EF8093210285EA8093BC0084E005C0A8
S11350F086E003C087E001C082E0DF91CF911F9179
S11351000F91FF9008951F93CF93DF93009729F198
S11351106B3028F5162FEC01A6DF811122C0809197
S1135120A2169091A316C817D90741F03EDF8981D2
S11351308093B800D093A316C093A2161093A4161C
S11351408881880F81608093A51688EF809321025F
S113515085EA8093BC0085E005C086E003C087E053
S113516001C082E0DF91CF911F9108951F920F92A9
S11351700FB60F9211240BB60F922F933F934F93B8
S11351805F936F937F938F939F93AF93BF93EF93AB
S1135190FF93E091B9008E2F90E0FC013897E13540
S11351A0F10508F075C08827E458FF4F8F4F85C478
S11351B01092A116E091A1168091A416E81770F43C
S11351C081E08E0F8093A116F0E0EB55F94E8081BB
S11351D08093BB0085E88093BC0072C084E980930F
S11351E0BC008091A2169091A316DC011296ED9159
S11351F0FC911397309709F463C020E040E050E03D
S113520064E019955DC0E091A11681E08E0F809352
S1135210A1168091BB00F0E0EB55F94E808380919C
S1135220B900803411F41092A1162091A11630E037
S11352308091A41690E001972817390724F485EC8F
S11352408093BC003DC085E88093BC0039C0809148
S1135250BB00E091A116F0E0EB55F94E808384E9A0
S11352608093BC008091A2169091A316DC01129643
S1135270ED91FC911397309719F12091A41645EA0A
S113528056E165E019951CC085EA8093BC0018C0FE
S11352908091B9008093210284E08093BC008091C6
S11352A0A2169091A316DC011296ED91FC9113972E
S11352B0309731F020E040E050E0609121021995F0
S11352C0FF91EF91BF91AF919F918F917F916F91DA
S11352D05F914F913F912F910F900BBE0F900FBE96
S11352E00F901F901895FC01411101C03DD5842FEA
S11352F090E09C012150310982239323892B09F0EA
S113530033D5413808F030D5128213824483440FD8
S1135310415045837183608380E090E00895505844
S1135320BB27AA270ED089C17AD130F07FD120F0D3
S113533031F49F3F11F41EF46FC10EF4E095E7FBC6
S11353403CC1E92F8BD180F3BA1762077307840736
S1135350950718F071F49EF5BAC10EF4E0950B2E82
S1135360BA2FA02D0B01B90190010C01CA01A001B3
S11353701124FF27591B99F0593F50F4503E68F10E
S11353801A16F040A22F232F342F4427585FF3CF4F
S1135390469537952795A795F0405395C9F77EF420
S11353A01F16BA0B620B730B840BBAF09150A1F069
S11353B0FF0FBB1F661F771F881FC2F70EC0BA0FEF
S11353C0621F731F841F48F4879577956795B79577
S11353D0F7959E3F08F0B3CF9395880F08F099276F
S11353E0EE0F9795879508950CD027C11FD140F0F3
S11353F016D130F021F45F3F19F0DFC0511168C1BC
S11354000BC12CD198F39923C9F35523B1F3951B00
S1135410550BBB27AA2762177307840738F09F5FD1
S11354205F4F220F331F441FAA1FA9F333D00E2E40
S11354303AF0E0E830D091505040E695001CCAF7AD
S113544029D0FE2F27D0660F771F881FBB1F261772
S113545037074807AB07B0E809F0BB0B802DBF0145
S1135460FF2793585F4F2AF09E3F510568F0A5C06F
S11354702FC15F3FECF3983EDCF3869577956795F3
S1135480B795F7959F5FC9F7880F911D96958795F6
S113549097F90895E1E0660F771F881FBB1F621715
S11354A073078407BA0720F0621B730B840BBA0BD3
S11354B0EE1F88F7E095089504D06894B11108C1EF
S11354C00895D4D088F09F5790F0B92F9927B751F9
S11354D0A0F0D1F0660F771F881F991F1AF0BA95B4
S11354E0C9F712C0B13081F0F2D0B1E00895EFC035
S11354F0672F782F8827B85F39F0B93FCCF38695AA
S113550077956795B395D9F73EF490958095709506
S113551061957F4F8F4F9F4F0895E89409C097FB83
S11355203EF490958095709561957F4F8F4F9F4F76
S11355309923A9F0F92F96E9BB279395F6958795BA
S113554077956795B795F111F8CFFAF4BB0F11F47D
S113555060FF1BC06F5F7F4F8F4F9F4F16C0882324
S113556011F096E911C0772321F09EE8872F762F5A
S113557005C0662371F096E8862F70E060E02AF09B
S11355809A95660F771F881FDAF7880F9695879587
S113559097F9089585D080F09F3740F491110EF06B
S11355A097C060E070E080E89FEB089526F41B1636
S11355B0611D711D811D07C021C097F99F6780E897
S11355C070E060E00895882371F4772321F0985007
S11355D0872B762F07C0662311F499270DC09051AD
S11355E0862B70E060E02AF09A95660F771F881F7B
S11355F0DAF7880F9695879597F908959F3F31F0CC
S1135600915020F4879577956795B795880F911DEC
S11356109695879597F908959FEF80EC0895002457
S11356200A941616170618060906089500240A9403
S113563012161306140605060895092E0394000C89
S113564011F4882352F0BB0F40F4BF2B11F460FF18
S113565004C06F5F7F4F8F4F9F4F089557FD905841
S1135660440F551F59F05F3F71F04795880F97FB22
S1135670991F61F09F3F79F08795089512161306DC
S11356801406551FF2CF4695F1DF08C0161617060B
S11356901806991FF1CF8695710561050894089540
S11356A0E5DFA0F0BEE7B91788F4BB279F3860F4A4
S11356B01616B11D672F782F8827985FF7CF869528
S11356C077956795B11D93959639C8F30895E89435
S11356D0BB2766277727CB0197F908950BD0ADCF69
S11356E09EDF28F0A3DF18F0952309F066CF94CF4E
S11356F01124EECFB3DFA0F3959FD1F3950F50E0C3
S1135700551F629FF001729FBB27F00DB11D639F6F
S1135710AA27F00DB11DAA1F649F6627B00DA11D15
S1135720661F829F2227B00DA11D621F739FB00DBB
S1135730A11D621F839FA00D611D221F749F33272B
S1135740A00D611D231F849F600D211D822F762FC4
S11357506A2F11249F5750408AF0E1F088234AF0C1
S1135760EE0FFF1FBB1F661F771F881F915050400D
S1135770A9F79E3F510570F020CFAACF5F3FECF30D
S1135780983EDCF3869577956795B795F795E795F9
S11357909F5FC1F7FE2B880F911D9695879597F90A
S11357A00895FA01EE0FFF1F30962105310599F196
S11357B06115710561F48038BFE39B0749F1689472
S11357C09038810561F08038BFEF9B0741F0992341
S11357D042F5FF3FE1053105210511F1E8940894F4
S11357E0E795D901AA2329F4AB2FBE2FF85FD0F394
S11357F010C0FF5F70F4A695E0F7F73950F019F088
S1135800FF3A38F49F779F930CD00F9007FC905881
S113581008953EF001CF60E070E080E89FE30895D2
S11358204FE79F775F934F933F932F939ED02F9192
S11358303F914F915F9152DF05C019F40EF0BDCE38
S113584046CFEACE13DFC8F39638C0F707F80F92B5
S1135850E8942BE33AEA48EB5FE74EDF0F920F92AE
S11358600F924DB75EB70F92C0D0EAE9F1E016D0BF
S11358704F915F91EF91FF91E595EE1FFF1F49F066
S1135880FE57E0684427EE0F441FFA95E1F741956F
S1135890550B32D00F9007FE26C00895DF93CF93A7
S11358A01F930F93FF92EF92DF927B018C01689418
S11358B005C0DA2EEF011EDFFE01E894A5912591C3
S11358C0359145915591AEF3EF013BDDFE01970112
S11358D0A801DA9479F7DF90EF90FF900F911F9170
S11358E0CF91DF9108959B01AC0160E070E080E806
S11358F09FE37ACD62CE82CEB9DEE8F39923D9F361
S1135900940F511DBBF39150504094F059F08823EB
S113591032F0660F771F881F91505040C1F79E3FA9
S1135920510544F7880F911D9695879597F9089529
S11359305F3FACF0983E9CF0BB27869577956795C2
S1135940B79508F4B1609395C1F7BB0F58F711F4FC
S113595060FFE8CF6F5F7F4F8F4F9F4FE3CFB8CE8D
S11359600EF04CCE59CE689428CE80DEC8F399232D
S1135970D1F3C6F3DF93CF931F930F93FF92C92FF5
S1135980DD2788232AF02197660F771F881FDAF70F
S113599020E030E040E85FEB9FE3883920F0803E70
S11359A030F021968F77BCDCE2ECF1E003C0B8DC88
S11359B0EFEEF1E073DF8B01BE01EC01FB2E6F57BC
S11359C071097595771F880B990BA9DD28E132E7DA
S11359D041E35FE38FDEAF2D9801AE01FF900F919D
S11359E01F91CF91DF91ADDC28CEFA01DC01AA0F23
S11359F0BB1F9B01AC01BF5728F422273327442740
S1135A0050781FC0B75188F4AB2F002446953795C2
S1135A102795011CA395D2F3002069F0220F331FB0
S1135A20441FB395DAF30DD07ACC61307105A0E848
S1135A308A07B94630F49B01AC016627772788278B
S1135A409078309621F020833183428353830895E4
S1135A5097FB072E16F4009406D077FD08D035D0B6
S1135A6007FC05D03EF4909581959F4F089570955D
S1135A7061957F4F0895A1E21A2EAA1BBB1BFD015D
S1135A800DC0AA1FBB1FEE1FFF1FA217B307E40719
S1135A90F50720F0A21BB30BE40BF50B661F771F71
S1135AA0881F991F1A9469F7609570958095909551
S1135AB09B01AC01BD01CF010895EE0FFF1F881FAC
S1135AC08BBF0790F691E02D1994AA1BBB1B51E1E3
S1135AD007C0AA1FBB1FA617B70710F0A61BB70B5A
S1135AE0881F991F5A95A9F780959095BC01CD01FF
S1135AF008950F931F93CF93DF93869F8001879F11
S1135B00100D969F100D1124C8010DD0EC010097C3
S1135B1021F0A80160E070E034D1CE01DF91CF9193
S1135B201F910F9108950F931F93CF93DF938230AA
S1135B30910510F482E090E0E091B416F091B5166E
S1135B4020E030E0A0E0B0E0309719F140815181CD
S1135B500281138148175907C8F08417950769F41F
S1135B60109731F012960C93129713961C9327C03A
S1135B700093B4161093B51622C02115310519F0FF
S1135B804217530718F49A01BD01EF01DF01F80130
S1135B90DBCF21153105F9F0281B390B24303105F1
S1135BA080F48A819B816115710521F0FB01938347
S1135BB0828304C09093B5168093B416FE01329686
S1135BC044C0FE01E20FF31F8193919322503109E7
S1135BD0398328833AC02091B2163091B316232B0F
S1135BE041F420910202309103023093B3162093C2
S1135BF0B21620910002309101022115310541F4C1
S1135C002DB73EB74091040250910502241B350B79
S1135C10E091B216F091B316E217F307A0F42E1B2D
S1135C203F0B2817390778F0AC014E5F5F4F2417FC
S1135C30350748F04E0F5F1F5093B3164093B216CA
S1135C408193919302C0E0E0F0E0CF01DF91CF9126
S1135C501F910F910895CF93DF93009709F481C0AA
S1135C60FC01329713821282A091B416B091B5163A
S1135C70109781F420813181820F931F2091B216F5
S1135C803091B3162817390751F5F093B316E09302
S1135C90B21667C0ED0120E030E0CE17DF0740F414
S1135CA04A815B819E0141155105F1F0EA01F5CF6E
S1135CB0D383C28340815181840F951FC817D907AC
S1135CC059F488819981840F951F0296918380836A
S1135CD08A819B81938382832115310529F4F09372
S1135CE0B516E093B4163DC0E901FB83EA834991FC
